:100000000C9434000C9451000C9451000C94510049
:100010000C9451000C9451000C9451000C9451001C
:100020000C9451000C9451000C9451000C9451000C
:100030000C9451000C9453000C9451000C945100FA
:100040000C9451000C9451000C9451000C945100EC
:100050000C9451000C9467000C9451000C945100C6
:100060000C9451000C94510011241FBECFEFD8E026
:10007000DEBFCDBF11E0A0E0B1E0EAE1F5E002C0F3
:1000800005900D92A831B107D9F711E0A8E1B1E0D0
:1000900001C01D92A432B107E1F70E94CD010C947A
:1000A0008B020C9400001F920F920FB60F92112436
:1000B0008F939F9388EF9FEF9093850080938400A8
:1000C0009F918F910F900FBE0F901F9018951F92C8
:1000D0000F920FB60F9211241F932F933F934F93BC
:1000E0005F936F937F938F939F93AF93BF93CF93C0
:1000F000DF93EF93FF93809179008A30A0F02091F5
:1001000079008091200190912101820F911D90939F
:1001100021018093200180911F018F5F80931F0137
:100120008A3041F026C110922101109220011092D4
:100130001F011FC180912001909121016AE070E0B0
:100140000E947702862F60931C01962F9A5096305A
:1001500020F481E080931A015EC0962F935197306E
:1001600020F482E080931A0156C0962F9E5197305A
:1001700020F483E080931A014EC0962F9F52963050
:1001800020F484E080931A0146C0962F9B54963049
:1001900020F485E080931A013EC0962F9456973044
:1001A00020F486E080931A0136C0962F9658973037
:1001B00020F487E080931A012EC0962F9A5A973028
:1001C00020F488E080931A0126C0962F915C963027
:1001D00020F489E080931A011EC0962F955D973018
:1001E00040F48AE080931A0180911801843070F500
:1001F000C0C0962F955E973018F410921A010BC06C
:100200008D5E873020F48BE080931A0104C080E17A
:1002100080931A01AEC090911A019B3059F08091E1
:100220001801E3E1F1E0E80FF11D90838F5F809307
:1002300018019FC080E18093130180931401809383
:100240001501809316011092180193C0809113013B
:1002500080931B019091140190931E0190911501C0
:1002600090931D0190911601909322018F3F79F098
:1002700077E080E091E06BE05DE04EE0A6E1B1E088
:10028000C5E1D1E020911E012F3F39F40CC089E077
:1002900080931B01109213016CC019E020911D0185
:1002A0002F3F71F412C029E020931E011092140117
:1002B00020911B01215020931B012F3F19F7E7CFFD
:1002C000209122012F3FB9F40BC010931D01188219
:1002D00020911E01215020931E012F3FF9F6E3CFFC
:1002E000109322011C9220911D01215020931D0189
:1002F0002F3F31F7EACF7BB920911B01FC01E20FC0
:10030000F11D208125B9E5EAFEE03197F1F700C043
:1003100000006BB920911E01FC01E20FF11D20814C
:1003200025B9E5EAFEE03197F1F700C000005BB9BE
:1003300020911D01FC01E20FF11D208125B9E5EAA4
:10034000FEE03197F1F700C000004BB92091220187
:10035000FC01E20FF11D308135B9E5EAFEE031978D
:10036000F1F700C000002150209322012F3F19F621
:10037000B7CFFF91EF91DF91CF91BF91AF919F9157
:100380008F917F916F915F914F913F912F911F912D
:100390000F900FBE0F901F9018955F926F927F92F3
:1003A0008F929F92AF92BF92CF92DF92EF92FF9285
:1003B0000F931F93CF93DF938FEF84B915B88FE41A
:1003C0008AB980E48BB980E280937C008DEA8093C7
:1003D0007A0086E080937B0088EF9FEF9093850002
:1003E000809384001092800085E08093810081E0FA
:1003F00080936F00789410921F0161E171E0A3E196
:10040000B1E080E091E0AD014F5F5F4F9D012E5F55
:100410003F4FED01239604E111E00F2EF5E1EF2EA1
:10042000F1E0FF2EF02D0F2EF6E1CF2EF1E0DF2EC2
:10043000F02D0F2EF0EF8F2E9924F02DFB01A080D0
:10044000EA2DE760EBB9BC90FC01EB0DF11DE081FA
:10045000E5B9E5EAFEE03197F1F700C00000EA2DCA
:10046000EB60EBB9FA015080FC01E50DF11DE08174
:10047000E5B9E5EAFEE03197F1F700C00000EA2DAA
:10048000ED60EBB9F9015080FC01E50DF11DE08153
:10049000E5B9E5EAFEE03197F1F700C00000EA2D8A
:1004A000EE60EBB9E8813C016E0E711CF301E08156
:1004B000E5B9E5EAFEE03197F1F700C00000BB20A6
:1004C00089F4F801B080BB2069F4F701B080BB204B
:1004D00049F4F601B080BB2029F490921201809279
:1004E0001101ACCF1092120110921101A7CFAA1BDB
:1004F000BB1B51E107C0AA1FBB1FA617B70710F00F
:10050000A61BB70B881F991F5A95A9F78095909540
:0A051000BC01CD010895F894FFCF5F
:10051A003F065B4F666D7D077F6F777C395E797129
:08052A00000F0010101010007A
:00000001FF
